:020000020000FC
:040000000C9421003B
:04000C000C94A300AD
:100034000C9495007E0CB69ECCDAFA0EFFCE0FEF30
:100044000DBF18E01DBFE8E3F0E000E80093610095
:1000540000E00093610000E00093C1000FEF0AB9D3
:100064000FEF07B9289A2098299A21982A9A22985A
:100074002B9A23982C9A249800E00093800005E0A2
:100084000093810001E000936F0002EC009385006F
:1000940007EF009384000FE100936B0001E00093ED
:1000A400680000E010E020E030E040E050E060E074
:1000B40070E080E090E0A0E024912BB978940E9455
:1000C400C3000E94D4000E94E5000E94F600513053
:1000D400B1F7639550E06A3091F7739560E076303C
:1000E40071F7939570E09A3051F7A39590E0AA3098
:1000F40031F7A0E00C94610040FF0C9483000C9451
:10010400880041FF0C948D000C94910041FF0C94E5
:100114008F000C9493000C9461000C9461000C9477
:1001240061000C9461000F930FB70F93539502EC89
:100134000093850007EF009384000F910FBF0F9188
:1001440018950F930FB70F9340FF0C94AB000C94CA
:10015400B00041FF0C94B5000C94BB0041FF0C941B
:10016400B7000C94BD000C94BF000C94BF000C9419
:10017400BF000C94BF000C94BF000F910FBF0F91F0
:1001840018954098419842984398262FE8E3F0E068
:10019400E20F2491409841984298439881E088B9AD
:1001A4002BB908954098419842984398272FE8E343
:1001B400F0E0E20F2491409841984298439882E0FD
:1001C40088B92BB908954098419842984398292FAB
:1001D400E8E3F0E0E20F2491409841984298439874
:1001E40084E088B92BB9089540984198429843987F
:1001F4002A2FE8E3F0E0E20F2491409841984298D6
:0A020400439888E088B92BB90895EB
:00000001FF
