:020000020000FC
:040000000C94270035
:04000C000C949300BD
:100040000C9489007E0CB69ECCDAFA0EFFCE0FEF30
:100050000DBF18E01DBFE4E4F0E000E8009361008C
:1000600000E00093610000E00093C1000FEF0AB9C7
:100070000FEF07B9289A2098299A21982A9A22984E
:100080002B9A23982C9A249800E004BD05E005BD26
:1000900001E000936E0003E606BD0FE100936B00E4
:1000A00001E00093680000E010E020E030E040E074
:1000B00050E060E024912BB9789440FF0C946200EA
:1000C0000C94670041FF0C946C000C94850041FF78
:1000D0000C9483000C948700543679F750E06395B4
:1000E0006C3359F760E0409A419842984398E39501
:1000F00024912BB92F3009F7E4E4F0E024912BB9D7
:10010000DCCF0C945D000C945D000C945D000C94AD
:100110005D000F930FB70F93539513E616BD0F9124
:100120000FBF0F9118950F930FB70F9340FF0C94CB
:100130009B000C94A00041FF0C94A5000C94B90006
:1001400041FF0C94AE000C94BB0003B100FF6A9514
:1001500001FF639504FF43950C94BD0003B100FFBC
:100160007A9501FF739504FF43950C94BD000C94A0
:10017000BD000C94BD000C94BD000F910FBF0F91FA
:020180001895D0
:00000001FF
